:020000040800F2
:10000000000500204501000841270008432700089B
:10001000472700084B2700084F2700080000000072
:10002000000000000000000000000000532700084E
:10003000552700080000000057270008592700082E
:100040005F0100085F0100085F0100085F01000810
:100050005F0100085F0100085F0100085F01000800
:100060005F0100085F0100085F0100085F010008F0
:100070005F0100085F0100085F0100085F010008E0
:100080005F0100085F0100085F0100085F010008D0
:100090005F0100085F0100085F0100085F010008C0
:1000A0005F0100085F0100085F0100085F010008B0
:1000B0005B2700085F0100085F0100085F0100087E
:1000C0005F0100085F0100085F0100085F01000890
:1000D0005F0100085F0100085F0100085F01000880
:1000E0005F0100085F0100085F0100085F01000870
:1000F0005F0100085F0100085F0100085F01000860
:100100005F0100085F0100085F0100085F0100084F
:100110005F0100085F0100085F0100085F0100083F
:100120005F0100085F0100085F0100085F0100082F
:10013000DFF80CD002F06CFD00480047ED2000080D
:10014000000500200648804706480047FEE7FEE716
:10015000FEE7FEE7FEE7FEE7FEE7FEE7FEE7FEE777
:10016000310200083101000800210020674A1268AE
:1001700042F48032654B1A6000BF644A126802F490
:100180000030491C10B9B1F5A06FF6D15F4A126872
:1001900012F4003F01D0012000E00020012842D1EC
:1001A0005B4A126842F01002594B1A601A461268F4
:1001B00022F003021A601A46126842F002021A6024
:1001C000524A5268514B5A601A4652685A601A464F
:1001D000526842F480625A601A46526822F47C12D5
:1001E0005A601A46526842F4E8125A601A46126877
:1001F00042F080721A6000BF444A126812F0007F19
:10020000FAD0424A526822F00302404B5A601A4622
:10021000526842F002025A6000BF3C4A526802F043
:100220000C02082AF9D1704710B5FFF79DFF10BDE9
:1002300010B53648006840F00100344908600846AF
:1002400040683449084031494860084600683249EE
:1002500008402E4908600846006820F480200860A5
:100260000846406820F4FE0048604FF41F00886094
:10027000FFF7DAFF4FF000602849086010BD10B5A5
:10028000002100200022214B5B6803F00C0121B10A
:10029000042906D0082928D107E0214B214C2360EE
:1002A00027E01F4B1F4C236023E0184B5B6803F4CF
:1002B0007010164B5B6803F48032022303EB90400E
:1002C00022B9194B4343174C23600DE00F4B5B6879
:1002D00013F4003F04D0144B4343124C236003E05B
:1002E0000F4B43430F4C236003E00D4B0D4C236039
:1002F00000BF00BF054B5B68C3F303130B4CE15C0D
:10030000084B1B68CB40074C236010BD0010024017
:10031000002002400000FFF8FFFFF6FE08ED00E0BD
:1003200000127A000000002000093D0004000020B7
:1003300036490143364A1160704770B500210023E9
:100340000F22C4784CB3324C246804F4E064C4F542
:10035000E0644FEA1421C1F1040322FA01F2447867
:1003600004FA03F1847804EA020444EA01014FEA42
:100370000111284C0678A155047804F01F054FF0B0
:10038000010404FA05F405784FEA65154FF0E026FC
:1003900006EB8505C5F8004109E0047804F01F0567
:1003A0000124AC401C4D0678761145F8264070BDFE
:1003B0001A4A0A4002431A4B1A60704741B1194A5F
:1003C000126842EA00024FF0E023C3F8102D07E064
:1003D000144A126822EA00024FF0E023C3F8102DFD
:1003E0007047042808D14FF0E021096941F0040169
:1003F0004FF0E022116107E04FF0E021096921F0A0
:1004000004014FF0E0221161704700000000FA057E
:100410000CED00E000E400E080E100E080FFFF1F61
:1004200008ED00E010ED00E010B50446CA48844233
:1004300008D10121042000F024FB0021042000F059
:1004400020FB46E0C548844208D10121082000F085
:1004500018FB0021082000F014FB3AE0C048844259
:1004600008D10121102000F00CFB0021102000F029
:1004700008FB2EE0BB48844208D10121202000F077
:1004800000FB0021202000F0FCFA22E0B648844264
:1004900008D10121402000F0F4FA0021402000F0B2
:1004A000F0FA16E0B148844208D10121802000F022
:1004B000E8FA0021802000F0E4FA0AE0AC48844227
:1004C00007D10121801500F0DCFA0021A01500F011
:1004D000D8FA10BD10B50121084600F0D2FA00216B
:1004E000012000F0CEFA10BD2DE9F04102460025B2
:1004F0000026002000230024002791F803C00CF000
:100500000F0591F803C01CF0100F03D091F802C042
:100510004CEA0505B1F800C01CF0FF0F31D014689B
:1005200000202BE04FF0010C0CFA00F3B1F800C0F2
:100530000CEA03069E4220D183004FF00F0C0CFA08
:1005400003F7BC4305FA03FC4CEA040491F803C02A
:10055000BCF1280F06D14FF0010C0CFA00FCC2F8D8
:1005600014C00AE091F803C0BCF1480F05D14FF068
:10057000010C0CFA00FCC2F810C0401C0828D1D3B2
:100580001460B1F800C0BCF1FF0F34DD54680020E6
:100590002EE000F1080C4FF0010808FA0CF3B1F856
:1005A00000C00CEA03069E4221D183004FF00F0CDD
:1005B0000CFA03F7BC4305FA03FC4CEA040491F877
:1005C00003C0BCF1280F05D100F1080C08FA0CF8A3
:1005D000C2F8148091F803C0BCF1480F07D100F1B4
:1005E000080C4FF0010808FA0CF8C2F81080401C03
:1005F0000828CED35460BDE8F0814FF6FF7101802A
:10060000022181700421C170704702460020936866
:100610000B4201D0012000E00020704701468868AD
:1006200080B2704702460020D3680B4201D00120FF
:1006300000E0002070470146C86880B27047016141
:100640007047416170470AB1016100E04161704744
:10065000C16070474FF480320A43826181618261D8
:1006600082698269704702460020424B18684FF643
:100670008073184040EA021008433E4B18607047F0
:100680003D49C8617047F0B50A46002300240021A7
:10069000002500F00046B6F1004F02D1354EF16959
:1006A00001E0344E7168C0F3034583B200F4401694
:1006B000B6F5401F08D121F070612E4E766826F005
:1006C00070662C4F7E6012E000F48016B6F5801F35
:1006D00006D1032606FA05F4A14341F0706106E055
:1006E000460D360103FA06F6B14341F0706122B1BE
:1006F000460D360103FA06F6314300F00046B6F126
:10070000004F02D11B4EF16101E01A4E7160F0BD45
:1007100030B500228B071C0F0F2303FA04F2154B90
:1007200008338C1053F824309343124C08348D1046
:1007300044F8253023468C1053F824308C07240FBE
:1007400000FA04F423430B4C08348D1044F8253090
:1007500030BD0A490860704700080140000C0140A4
:10076000001001400014014000180140001C01402D
:10077000002001400000014000002042DC00204237
:10078000DB48006840F00100D9490860084640682D
:10079000D8490840D649486008460068D64908400C
:1007A000D34908600846006820F4802008600846A5
:1007B000406820F4FE0048604FF41F0088607047D6
:1007C000CB49096821F48031C94A11601146096892
:1007D00021F480211160B0F5803F03D0B0F5802F67
:1007E0000ED106E0C249096841F48031C04A116067
:1007F00007E0BF49096841F4A021BD4A116000E04B
:1008000000BF00BF704710B5014600220023002042
:100810004A11012A02D1B64C236806E0022A02D10D
:10082000B34C236A01E0B24C636A01F01F02012459
:1008300094401C4201D0012000E0002010BD70B5A2
:1008400000240025002600BF3120FFF7DCFF06460C
:10085000641CB4F5A06F01D0002EF5D03120FFF755
:10086000D2FF08B1012500E00025284670BD0146F1
:1008700000209F4A106820F0F80040EAC100106094
:1008800070479E490860704702460020984B5868A0
:1008900020F47C1042EA01031843954B58607047DE
:1008A00096490866704701460020914A506820F03A
:1008B00003000843506070478D48406800F00C000A
:1008C0007047014600208A4A506820F0F000084333
:1008D0005060704701460020854A506820F4E0606F
:1008E00008435060704701460020814A506820F458
:1008F000605040EAC1005060704729B17C4A527A8A
:1009000002437B4B5A7206E0794A527AC343DBB208
:100910001A40774B5A727047794908607047014610
:100920000020734A506820F44040084350607047EC
:100930000021744A11706E4A82F82010012802D0FA
:10094000042808D103E001216E4A117004E005215A
:100950006C4A117000E000BF00BF70476A49086030
:1009600070476349096A0143614A116270476749E8
:100970000860704730B500210022002400235C4D40
:100980006D6805F00C0121B1042905D0082923D197
:1009900005E05F4D056022E05D4D05601FE0544DB0
:1009A0006D6805F47012524D6D6805F480340225AF
:1009B00005EB92421CB9574D554305600BE04C4D79
:1009C0006D6815F4003F03D0524D5543056002E0B9
:1009D0004F4D5543056002E04D4D056000BF00BF1F
:1009E000434D6D6805F0F00109094B4D6B5C0568DE
:1009F000DD4045603E4D6D6805F4E061090A464DF5
:100A00006B5C4568DD408560394D6D6805F460516B
:100A1000C90A414D6B5C4568DD40C560344D6D6869
:100A200005F44041890B3D4D6B5CC568B5FBF3F5A2
:100A3000056130BD29B12E4A526902432C4B5A61DF
:100A400004E02B4A52698243294B5A61704729B10D
:100A5000274A92690243264B9A6104E0244A92692C
:100A60008243234B9A61704729B1214AD2690243DC
:100A70001F4BDA6104E01E4AD26982431C4BDA61E3
:100A8000704729B11A4AD2680243194BDA6004E070
:100A9000174AD2688243164BDA60704729B1144A6C
:100AA00012690243124B1A6104E0114A126982432F
:100AB0000F4B1A6170471A49086070470F49C864A4
:100AC00070470B49C87170470948406A40F0807010
:100AD00007494862704701460020054A92680A4269
:100AE00001D0012000E00020704701498872704762
:100AF000001002400000FFF8FFFFF6FE0000424237
:100B0000D800424220100240800442423C0442424B
:100B100000127A0000093D0014000020240000208B
:100B20004004424210B50446FF48844208D10121E6
:100B3000C014FFF7A6FF0021E014FFF7A2FFC4E0F6
:100B4000B4F1804F08D101210846FFF7A7FF00212B
:100B50000120FFF7A3FFB8E0F448844208D1012147
:100B60000220FFF79BFF00210220FFF797FFACE078
:100B7000EF48844208D101210420FFF78FFF0021B4
:100B80000420FFF78BFFA0E0EA48844208D101214E
:100B90000820FFF783FF00210820FFF77FFF94E084
:100BA000E548844208D101211020FFF777FF00219A
:100BB0001020FFF773FF88E0E048844208D101214C
:100BC0002020FFF76BFF00212020FFF767FF7CE06C
:100BD000DB48844208D101214014FFF752FF002175
:100BE0006014FFF74EFF70E0D648844209D101211E
:100BF000C804FFF746FF00214FF40020FFF741FF34
:100C000063E0D148844209D101210805FFF739FF8B
:100C100000214FF48010FFF734FF56E0CB488442A8
:100C200009D101214805FFF72CFF00214FF40010E6
:100C3000FFF727FF49E0C648844208D10121402040
:100C4000FFF72CFF00214020FFF728FF3DE0C148BF
:100C5000844208D101218020FFF720FF002180205D
:100C6000FFF71CFF31E0BC48844208D10121801508
:100C7000FFF714FF0021A015FFF710FF25E0B7488C
:100C8000844209D101210804FFF7FBFE00214FF443
:100C90008030FFF7F6FE18E0B148844209D1012107
:100CA0004804FFF7EEFE00214FF40030FFF7E9FEA5
:100CB0000BE0AC48844208D101218804FFF7E1FE33
:100CC00000214FF48020FFF7DCFE10BD00220288D7
:100CD000954B98420ED09A4B98420BD0B0F1804F72
:100CE00008D0924B984205D0914B984202D0914B3C
:100CF000984204D14FF68F731A404B881A438E4B9B
:100D0000984207D08D4B984204D04FF6FF431A40CB
:100D1000CB881A4302808B8883850B880385824B9E
:100D200098420BD0864B984208D08C4B984205D005
:100D30008B4B984202D08B4B984201D10B7A0386A1
:100D400001238382704770B5002400220023058CA4
:100D50004FF6FE7635400584028C8388048B4FF66F
:100D60008F752C40B51E2C400D882C43751E2A40D3
:100D70000D892A434D882A436B4DA8420BD0704DF4
:100D8000A84208D0754DA84205D0754DA84202D0A2
:100D9000744DA84213D14FF6F7752A404D892A4366
:100DA0004FF6FB752A408D882A434FF6FF652B408E
:100DB0004FF6FF552B408D892B43CD892B438380E4
:100DC0000483CD888586028470BD70B5002400221E
:100DD0000023058C4FF6EF7635400584028C83881E
:100DE000048B48F6FF752C404FF6FF452C400D88CC
:100DF0002D0644EA15444FF6DF752A400D892D056E
:100E000042EA15424D882D0542EA1542464DA84258
:100E100002D04B4DA8421BD14FF67F752A404D8919
:100E20002D0542EA15424FF6BF752A408D882D05E3
:100E300042EA15424FF6FF352B404FF2FF752B402B
:100E40008D89AD0443EA1543CD89AD0443EA1543CA
:100E500083800483CD880587028470BD70B500242B
:100E600000220023058C4FF6FF6635400584028C76
:100E70008388848B4FF68F752C404FF6FC752C4081
:100E80000D882C434FF6FF552A400D892D0642EA66
:100E900015424D882D0642EA1542234DA84202D044
:100EA000274DA8421BD14FF2FF752A404D892D06D0
:100EB00042EA15424FF6FF352A408D882D0642EA58
:100EC00015424EF6FF752B404DF6FF752B408D8970
:100ED0002D0543EA1543CD892D0543EA154383804B
:100EE0008483CD888587028470BD70B5002200237D
:100EF0000024058C4EF6FF7635400584038C8488EB
:100F0000828B48F6FF752A404FF6FF452A400D8830
:100F10002D0642EA15424DF6FF752B400D892D072F
:100F200043EA15434D881FE0002C014000040040B7
:100F300000080040000C0040001000400014004079
:100F400000340140004C0140005001400054014079
:100F500000180040001C00400020004000400140FC
:100F600000440140004801402D0743EA1543F94D74
:100F7000A84202D0F84DA84206D14BF6FF752C408E
:100F80008D89AD0544EA154484808283CD88A0F81C
:100F90004050038470BD828B4FF2FF331A4082832E
:100FA000828B0B0642EA134282837047F0B50C46EF
:100FB0001546002200210026078C4EF6FF7C07EA2A
:100FC0000C070784828B018C27073E0C40F6FF47F5
:100FD0003A402F0642EA17421F0742EA1742DD4F06
:100FE000B8420ED0DC4FB8420BD0B0F1804F08D0E1
:100FF000DA4FB84205D0DA4FB84202D0D94FB842E2
:1010000006D14DF6FF77394046F48057394305E065
:1010100047F6FF57394044F48057394382830184AF
:10102000F0BD828B4FF6F3731A408283828B0A43A2
:1010300082837047F0B50C46154600220021002639
:10104000078C4FF6FF6C07EA0C070784828B018C34
:1010500027063E0C4FF60C773A401F0545EA174726
:101060003A43BC4FB8420ED0BB4FB8420BD0B0F1A0
:10107000804F08D0B94FB84205D0B94FB84202D01E
:10108000B84FB84206D14FF6FF57394046F4807743
:10109000394305E04FF2FF57394044F48077394334
:1010A00082830184F0BD028B4FF2FF331A4002832A
:1010B000028B0B0642EA134202837047F0B50C46DE
:1010C0001546002200210026078C4FF6EF7C07EA28
:1010D0000C070784028B018C27053E0C40F6FF4766
:1010E0003A401F0742EA17422F0642EA1742994F39
:1010F000B8420ED0984FB8420BD0B0F1804F08D014
:10110000964FB84205D0964FB84202D0954FB8429C
:1011100006D14FF6DF77394046F01007394305E036
:101120004FF65F77394044F010073943028301845A
:10113000F0BD028B4FF6F3731A400283028B0A4311
:1011400002837047F0B50C46154600220021068C3C
:101150004FF6FE773E400684028B018C4FF60C76EC
:1011600032401E0545EA164632437A4EB0420ED052
:10117000794EB0420BD0B0F1804F08D0774EB042DC
:1011800005D0774EB04202D0764EB04206D14FF62F
:10119000FD76314044F00106314305E04FF6F57627
:1011A000314044F00106314302830184F0BD70B543
:1011B00005460C46674885420ED0674885420BD0ED
:1011C000B5F1804F08D06548854205D06448854216
:1011D00002D06448854200D100E000BF208850B9A9
:1011E0002389A28861882846FFF7ACFFE18828465A
:1011F000FFF79FFF25E0208804280AD12389A288D1
:1012000061882846FFF75AFFE1882846FFF74BFF21
:1012100017E0208808280AD12389A28861882846F7
:10122000FFF708FFE1882846FFF7FBFE09E0238966
:10123000A28861882846FFF7B9FEE1882846FFF7B3
:10124000AAFE70BD2DE9F04105460C460026012797
:10125000608808B9022600E00026A088012801D194
:10126000022700E001272088A0B92389A28861888D
:101270002846FFF767FFE1882846FFF75AFF2389D2
:101280003A4631462846FFF719FFE1882846FFF71E
:101290000AFF13E02389A28861882846FFF70EFF22
:1012A000E1882846FFF7FFFE23893A463146284663
:1012B000FFF748FFE1882846FFF73BFFBDE8F081D4
:1012C0000A884B881A438B881A43CB881A430B89A8
:1012D0001A434B891A438B891A43A0F8442070475C
:1012E0004FF6FF71818000210180C1804180017231
:1012F00070470021018041808180C180018141814E
:101300008181C1817047002101804180012181805C
:101310000021C180018170470021018041808180CE
:10132000C180018141818181704721B1028842F0F1
:101330000102028004E002884FF6FE731A40028028
:10134000704789B1B0F8442042F40042A0F844202C
:1013500010E00000002C0140003401400004004077
:1013600000080040000C0040B0F84420C2F30E0218
:10137000A0F84420704710B51AB183890B438381CC
:1013800004E08389CC43A4B22340838110BD8182D1
:10139000704741EA0203A0F84830704710B51AB10F
:1013A00083890B43838104E08389CC43A4B2234027
:1013B000838110BD01894FF6F87211400181704799
:1013C0000A46002101894FF68F73194011430181AC
:1013D000704730B504460D4629462046FFF7F0FF1A
:1013E000208940F00700208130BD2DE9F0410446FE
:1013F0000D4616461F46602D06D13B46012231465A
:101400002046FFF75BFE05E03B46012231462046C1
:10141000FFF798FE29462046FFF7D2FF208940F0CB
:1014200007002081BDE8F08130B50C46002101891C
:10143000C9B21D0642EA154525432943018130BD45
:101440002DE9F04105460E461746984600244346CE
:101450003A4631462846FFF7E7FF2C894FF6F871E8
:101460000C4044F007044FF68F710C4044F07004B8
:101470002C81BDE8F081F0B504460D4616461F46A6
:101480003B46324629462046FFF7CEFF208940F4EE
:1014900080402081F0BD0185828270470A4600218C
:1014A00001884FF68F731940114301807047F0B5E2
:1014B0000C4615461E460021002200230189028B9E
:1014C000038C4FF6F877394021434FF6FC473A40FA
:1014D00040F201173A434FF6DD773B40370545EAC6
:1014E00017473B43018102830384F0BD0A46002174
:1014F000018B4FF68F7319401143018370470A46E1
:101500000021018B48F6FF731940130641EA13418D
:10151000018370470A460021818B4FF68F73194073
:101520001143818370470A460021818B48F6FF737F
:101530001940130641EA13418183704721B10288A3
:1015400042F08002028004E002884FF67F731A4066
:101550000280704721B1828842F00402828004E058
:1015600082884FF6FB731A408280704721B18288CF
:1015700042F00802828004E082884FF6F7731A4036
:101580008280704721B1828842F00102828004E0AB
:1015900082884FF6FE731A40828070470A46002107
:1015A000018B4FF6F77319401143018370470A46C8
:1015B0000021018B4FF2FF731940130641EA1341DA
:1015C000018370470A460021818B4FF6F77319405B
:1015D0001143818370470A460021818B4FF2FF73CC
:1015E0001940130641EA1341818370470A460021DE
:1015F000018B4FF6FB7319401143018370470A4674
:101600000021018B4FF6FF331940130641EA1341C5
:10161000018370470A460021818B4FF6FB73194006
:101620001143818370470A460021818B4FF6FF33B7
:101630001940130641EA1341818370470A4600218D
:10164000018B4FF67F7319401143018370470A469F
:101650000021018BC1F30E01130641EA13410183FE
:1016600070470A460021818B4FF67F731940114362
:10167000818370470A460021818BC1F30E01130656
:1016800041EA1341818370470A460021018C4FF6DD
:10169000FD7319401143018470470A460021018CF3
:1016A0004FF6F77319401143018470470A46002131
:1016B000018C4FF6DF731940130541EA1341018491
:1016C00070470A460021018C4FF67F7319401305BD
:1016D00041EA1341018470470A460021018C4FF60C
:1016E000FF531940130641EA1341018470470A462B
:1016F0000021018C4FF2FF731940130641EA134198
:10170000018470470A460021018C4DF6FF73194091
:10171000130741EA13410184704730B500230124C7
:101720008C40A3B2048CDD43ADB22C400484048C05
:1017300002FA01F5ADB22C43048430BD30B500236C
:1017400004248C40A3B2048CDD43ADB22C4004844D
:10175000048C02FA01F5ADB22C43048430BD70B59F
:101760000346002000241846183001258D40ACB2F5
:101770001D8CE643B6B235401D8409B1082909D154
:1017800000EB6100056825F07005056005681543EC
:1017900005600CE00D1FADB200EB6500056825F497
:1017A000E04505600568160645EA1645056070BD0A
:1017B00021B1028842F00202028004E002884FF662
:1017C000FD731A400280704721B1028842F0040282
:1017D000028004E002884FF6FB731A4002807047D3
:1017E00021B1828842F08002828004E082884FF634
:1017F0007F731A408280704702884FF6F7731A4051
:10180000028002880A430280704782884FF68F73F5
:101810001A40828082880A438280704702894FF68C
:10182000F8731A40028102890A43028170470289D3
:101830004FF67F731A40028102890A430281704782
:101840008184704781857047818670470187704722
:1018500081877047A0F84010704702884FF6FF4319
:101860001A40028002880A43028070470146888E2F
:1018700070470146088F70470146888F70470146C0
:10188000B1F8400070470146888C70470146088DCA
:10189000704702460020138A0B4201D0012000E06D
:1018A00000207047CA430282704730B502460020CC
:1018B00000230024158A05EA0103958905EA01043D
:1018C00013B10CB1012000E0002030BDCA430282F8
:1018D0007047000000E0401E0028FCD1704710B5A2
:1018E0000821FF48FEF7ADFE1021FD48FEF7A7FED8
:1018F0000121FC48FEF7A5FE8021F948FEF7A1FE74
:101900004021F748FEF79DFE2021F548FEF799FE9D
:1019100010BD2DE9F04106460F460025002434464F
:1019200000BF49E00821EE48FEF78BFE14F0010FDE
:1019300004D00121EB48FEF782FE03E00121E948D3
:10194000FEF77FFE640814F0010F04D08021E44804
:10195000FEF775FE03E08021E148FEF772FE6408A1
:1019600014F0010F04D04021DD48FEF768FE03E0CB
:101970004021DB48FEF765FE640814F0010F04D037
:101980002021D748FEF75BFE03E02021D448FEF774
:1019900058FE64080821D248FEF751FE00BF00BF80
:1019A00000BF00BF0821CE48FEF74BFE00BF00BFBE
:1019B00000BF00BF681CC5B2082DB3DB3C46002544
:1019C00049E00821C648FEF73CFE14F0010F04D0A0
:1019D0000121C448FEF733FE03E00121C148FEF7B0
:1019E00030FE640814F0010F04D08021BC48FEF7DB
:1019F00026FE03E08021BA48FEF723FE640814F0B7
:101A0000010F04D04021B648FEF719FE03E0402143
:101A1000B348FEF716FE640814F0010F04D020212D
:101A2000AF48FEF70CFE03E02021AD48FEF709FEAB
:101A300064080821AA48FEF702FE00BF00BF00BFED
:101A400000BF0821A648FEF7FCFD00BF00BF00BF95
:101A500000BF681CC5B2082DB3DBBDE8F08110B52E
:101A600010219F48FEF7EDFD00BF00BF00BF00BF83
:101A700010219B48FEF7E3FD00BF00BF00BF00BF81
:101A800010BD2DE9F04106460027B84600249648CF
:101A90000078012807D195480078022844D093485F
:101AA0000078052840D09248B6FBF0F091490D5CD3
:101AB000681EC11700EB91718910491C0422C2EB0A
:101AC000C101491BCCB2202C04DA0120A04040EA1D
:101AD000080805E0A4F12000012101FA00F0074305
:101AE0008348B6FBF0F100FB116042F21071B0FBCD
:101AF000F1F180480A30455C681EC11700EB917116
:101B00008910491C0422C2EBC101491BCCB2202C14
:101B100004DA0120A04040EA080805E0A4F1200012
:101B2000012101FA00F007436F480078012807D12E
:101B30006E48007801284CD06C480078042848D0C2
:101B400042F21070B6FBF0F100FB11604FF47A71B5
:101B5000B0FBF1F167481430455C681EC11700EB1B
:101B600091718910491C0422C2EBC101491BCCB2FE
:101B7000202C04DA0120A04040EA080805E0A4F186
:101B80002000012101FA00F007434FF47A70B6FB00
:101B9000F0F100FB11606421B0FBF1F155481E30FB
:101BA000455C681EC11700EB91718910491C042225
:101BB000C2EBC101491BCCB2202C04DA0120A040A9
:101BC00040EA080805E0A4F12000012101FA00F034
:101BD000074345480078012806D144480078F0B30F
:101BE00042480078032844D06420B6FBF0F100FBA3
:101BF00011600A21B0FBF1F13E482830455C681EB7
:101C0000C11700EB91718910491C0422C2EBC1017C
:101C1000491BCCB2202C04DA0120A04040EA08087D
:101C200005E0A4F12000012101FA00F007430A2099
:101C3000B6FBF0F100FB11612E483230455C681EA6
:101C4000C11700EB91718910491C0422C2EBC1013C
:101C5000491BCCB2202C06DA0120A04000E008E0AD
:101C600040EA080805E0A4F12000012101FA00F093
:101C7000074339464046FFF74CFEFFF7F0FEBDE84C
:101C8000F08100B58DB00121C802FEF7E0FE012110
:101C90001948FEF7F8FC4FF46040ADF8200018201A
:101CA0008DF8230003208DF8220008A90D48FEF7C7
:101CB0001BFC4FF47A70ADF818001220ADF8140038
:101CC0000020ADF81A008DF81C00ADF8160005A92B
:101CD0000A48FEF7FBFF6020ADF8240001200FE06A
:101CE00000080140000C0140CF000020CE00002081
:101CF000A08601002800002040001600002C0140B2
:101D0000ADF826000420ADF828004FF47A70ADF845
:101D10002A000020ADF82C00ADF82E004FF48070A2
:101D2000ADF830000020ADF8320009A9FF48FFF7F8
:101D30000AF80821FD48FFF731FC09A9FB48FFF725
:101D400044F80821F948FFF732FC09A9F748FFF7E2
:101D500085F80821F548FFF735FC4FF40060ADF831
:101D600004004010ADF806000020ADF80800ADF802
:101D70000A00ADF80C004FF40050ADF80E00400022
:101D8000ADF8100001A9E948FFF79AFA0121E748E8
:101D9000FFF7CBFA0121E548FFF7D3FA0DB000BDFC
:101DA00008B54FF4E060FEF7C3FA1C208DF8000080
:101DB00000208DF8010003208DF8020001208DF82D
:101DC00003006846FEF7B9FA08BD0EB501210846C2
:101DD000FEF74AFE42F21070ADF804004720ADF85D
:101DE00000000020ADF80600ADF8020069464FF093
:101DF0008040FEF76BFF01218807FFF753FD0122AA
:101E000011469007FFF7B7FA01218807FFF78DFA0F
:101E100000210120FEF728FE0EBD1FB50446A0B22A
:101E2000ADF8060069464FF08040FEF78CFF0821B0
:101E3000C806FFF7B3FB1FBDBD48007858B9BD48C1
:101E40000068BD49088040F2E930BC49A1F8380C6F
:101E5000BB49088020E0B648007801280DD140F247
:101E6000E930B5490880B3480068B449A1F8380C96
:101E700040F2E930B24908800EE0AD48007802280F
:101E80000AD140F2E930AC490880AC49A1F8380CDD
:101E9000A8480068AA490880704708B501211020A9
:101EA000FEF7D5FD4FF4E050ADF8000048208DF866
:101EB00003006946A348FEF717FB08BD7CB5A2489E
:101EC000007860B94FF480619E48FEF79EFB18B918
:101ED00001209D49087002E000209B4908709A4843
:101EE000007801280BD181029648FEF78EFB18B9C5
:101EF00002209549087002E000209349087092483A
:101F0000007802280CD141028E48FEF77EFB0128A2
:101F100003D103208C49087002E002208A4908702E
:101F20008948007803281FD18848007850B988482C
:101F30000078401C86490870084600780F2801DDAB
:101F4000002008708148007801280AD18148824920
:101F5000097850F82100401C7E497F4A127841F8E8
:101F600022000020784908707C48007860B94FF45E
:101F700000617448FEF749FB18B9012077490870E1
:101F800002E00020754908707448007801280BD1E0
:101F9000C1026C48FEF739FB18B902206F4908707E
:101FA00002E000206D4908706C48007802280CD1CE
:101FB00081026448FEF729FB012803D10320674909
:101FC000087002E002206549087064480078032820
:101FD00011D15E48007801280AD15F480078401C82
:101FE0005D49087008460078052801DD002008706A
:101FF00000205A4908705A48007860B94FF480515F
:102000005048FEF702FB18B901205549087002E05C
:102010000020534908705248007801280BD1010371
:102020004848FEF7F2FA18B902204D49087002E05C
:1020300000204B4908704A48007802280CD1C102A0
:102040004048FEF7E2FA012803D103204449087012
:1020500002E002204249087041480078032844D138
:102060003A48007818B90120384908703AE03748F2
:102070000078012836D1002034490870394880782A
:10208000344909680844C3B2364840783149496840
:102090000844C2B2334DCDE900232D782D4EB668E9
:1020A0003544EBB22F4D6D7A2A4EF6683544EAB2CC
:1020B0002C4D2D7A274E36693544E9B2294D6D688D
:1020C000244E76693544E8B200F019FD002404E09E
:1020D0000020204941F82400641C062CF8DB002075
:1020E0001D49087000201E4908707CBD08B50024F9
:1020F0001D48406820F07F4040F080601A494860E9
:1021000001210C20FEF7A3FCE820ADF8000014200C
:102110008DF8030003208DF8020069461348FEF78E
:10212000E3F91020ADF80000142021E0002C01405C
:10213000D5000020D0000020342C014000200140B8
:102140003C2C0140000C0140C4000020CD000020C8
:10215000CC000020D8000020CE000020C5000020C8
:10216000C6000020F00000200000014000080140EF
:102170008DF8030003208DF802006946F948FEF748
:10218000B3F90120ADF8000014208DF803000320FE
:102190008DF802006946F448FEF7A6F90220ADF872
:1021A000000010208DF8030003208DF8020069461E
:1021B000ED48FEF799F94FF40040ADF8000010200B
:1021C0008DF8030003208DF802006946E548FEF70C
:1021D0008BF90820ADF8000048208DF8030003209B
:1021E0008DF802006946E048FEF77EF9FFF755FEDC
:1021F000FFF775FB4FF40051DB48FEF720FA4FF470
:102200008041D948FEF71BFA4FF40041D648FEF74B
:1022100016FA0221D448FEF712FA4FF40041D148D1
:10222000FEF70FFA00F039FCFFF72BFD4FF47A713F
:10223000CE48FFF707FBFFF7C8FDFFF7B1FD01210F
:102240000846FEF711FC6BE2C9480068042802DB6F
:102250000020C7490860C7480068052820DB002027
:10226000C4490860C4480078F0BB00F08AFC4FF411
:102270000061BD48FEF7C9F998B9C049497ABF4A1B
:10228000127A02EBC20303EB021201EB8202BB499A
:10229000496840F27123594302EB0110FFF7F1FB4B
:1022A000FCE0B6488078A84211D0B4498A784978D1
:1022B00001EBC10303EB011102EB8102AF49097885
:1022C00040F27123594302EB0110FFF7DAFBAB48F0
:1022D000857880781D2803D0A84880783B280BD1CA
:1022E000A74951F8240000E007E0FFF7CAFB601C93
:1022F000C4B20A2C00DD0024D0E09F4800780128F9
:102300007ED100F03EFC9D4880789E4909680844D3
:102310003B2804DD9B4800683C389A490860974890
:10232000807898490968401804D5964800683C3080
:1023300094490860914840789249496808443B288C
:1023400004DD904840683C388E4948608B484078AE
:102350008C494968401804D58A4840683C3089490E
:10236000486086480078874989680844172804DD52
:10237000844880681838834988608048007881499B
:102380008968401804D57F48806818307D49886086
:102390007A48407A7B49C96808441F2804DD794897
:1023A000C06820387749C8607448407A7549C96860
:1023B000401804D57348C06820307249C8606F481F
:1023C000007A7049096908440C2804DD6D480069E9
:1023D0000C386C4908616948007A6A4909690844FF
:1023E000012804DA674800690C30664908616348CF
:1023F0004068644949690844322806D9614800E0C8
:102400004CE0406922385F4948615C4840685D495A
:1024100049690844112804D25A4840692230594970
:1024200048615948007802281CDC54498978554A8B
:1024300012681144514A5278524B5B681A4402EBBD
:10244000C20303EB021201EB82024C4909784D4BA7
:102450009B68194440F27123594302EB0110FFF7C6
:1024600010FB1BE04549497A464AD2681144434A69
:10247000127A444B1B691A4402EBC20303EB0212AB
:1024800001EB82023D4949683E4B5B69194440F2C9
:102490007123594302EB0110FFF7F3FA3B48006840
:1024A00008285EDB0020394908603948007828B1E7
:1024B000384800680A303749086004E03548006849
:1024C0000A383449086033480068B0F54D7F06DAB1
:1024D0004FF44D702F49086001202D4908702D4898
:1024E0000068B0F57A7F11DD40F2E93029490860D3
:1024F00000202749087028480078401C26490870A9
:1025000008460078032801DB002008702348007883
:1025100010280BD2DFE800F0080B174A56647280CF
:102520008E9AA8B4C0CEDAE4FFF786FCE2E0194840
:1025300000681B49088040F2E9301A49A1F8380CBC
:1025400019490880D6E040F2E93015490880114861
:1025500000681449A1F8380C40F2E93012490880AB
:10256000C8E0C8E000080140000C0140002C014018
:10257000B4000020B8000020CD000020F0000020B2
:102580008C000020D8000020CE000020BC000020DD
:10259000D4000020D0000020D5000020CC00002076
:1025A000342C0140002001403C2C014040F2E93035
:1025B0005C4908805C49A1F8380C5C4800685C49BB
:1025C000088097E0594800685649088057480068D5
:1025D0005549A1F8380C40F2E9305549088089E0A6
:1025E000524800684F49088040F2E9304E49A1F84E
:1025F000380C4E4800684E4908807BE040F2E930D4
:1026000048490880494800684749A1F8380C4748BC
:102610000068474908806DE04448006841490880E7
:10262000424800684049A1F8380C404800684049D9
:1026300008805FE04FF44D703A49088040F2E9307D
:102640003949A1F8380C3A49088053E040F2E930A2
:10265000344908804FF44D703349A1F8380C40F2EA
:10266000E9303349088045E040F2E9302D490880DF
:102670002D49A1F8380C4FF44D702D49088039E0F0
:102680004FF44D70274908802749A1F8380C40F2D3
:10269000E930274908802DE04FF44D70214908802A
:1026A00040F2E9302049A1F8380C4FF44D70204930
:1026B00008801FE040F2E9301A4908804FF44D705D
:1026C0001949A1F8380C1A49088013E04FF44D70ED
:1026D000144908801449A1F8380C1549088009E00C
:1026E00040F2E9300F4908800F49A1F8380C104931
:1026F000088000BF00BF0F480068322810DB0020B0
:102700000C4908600C480078012806D10B48007875
:10271000C0F101000949087002E000200749087073
:1027200092E50000342C014000200140D000002040
:102730003C2C0140C0000020CD000020CF00002034
:10274000704700BFFEE700BFFEE700BFFEE700BF27
:10275000FEE7704770477047704710B50121880742
:10276000FFF7A3F8B8B10C480068401C0A4908609C
:102770000A480068401C0949086009480068401C74
:102780000749086007480068401C064908600121A5
:102790008807FFF79BF810BDB4000020B8000020A8
:1027A000BC000020C0000020002001E0411CC8B295
:1027B0000A28FBDB704710B54FF48070734908603E
:1027C0004FF400707249C1F8100CFFF7EDFF4FF4A1
:1027D000807070490860FFF7E7FF4FF400706C49A4
:1027E000C1F8140CFFF7E0FF10BD10B54FF4807076
:1027F000684908604FF400706549C1F8100CFFF794
:10280000D3FF4FF480706149086010BD70B5044675
:10281000002523E014F0800F04D04FF480705B4952
:10282000086003E04FF480705A490860FFF7BCFF6E
:102830004FF4007055490860FFF7B6FF4FF4007081
:102840005349C1F8140C072D02D140104F490860BC
:102850006006040EFFF7A8FF681CC5B2082DD9DB7F
:1028600070BD70B50024002517E06006040E4FF41B
:10287000007046490860FFF797FF4548D0F8080CFC
:1028800010F4807F01D0601CC4B24FF40070414945
:102890000860FFF789FF681CC5B2082DE5DB2046FC
:1028A00070BD10B54FF4807038490860FFF77CFFA9
:1028B0004FF400703649C1F8100CFFF775FF364829
:1028C000006810F4807F01D0012400E000244FF460
:1028D000007030490860FFF767FF204610BD10B553
:1028E0004FF480702B490860FFF75EFF4FF40070D3
:1028F0002749C1F8100CFFF757FF4FF40070254926
:102900000860FFF751FF4FF480702149C1F8100CA7
:1029100010BD10B54FF480701C490860FFF744FFEC
:102920004FF400701A49C1F8100CFFF73DFF4FF447
:10293000007018490860FFF737FF10BD08B5012186
:102940000820FEF784F84FF44070ADF80000032033
:102950008DF8020014208DF8030069460E480838EF
:10296000FDF7C2FDFFF741FF08BD70B50446FFF754
:10297000E5FFFFF720FF2046FFF748FFFFF791FF35
:102980000546FFF732FF284670BD0000100C0140DD
:1029900000000140140C0140080C0140002105E03A
:1029A000142100BF0A00A1F10101FBD10200A0F136
:1029B0000100F5D17047002106E042F6E06100BF5A
:1029C0000A00A1F10101FBD10200A0F10100F4D144
:1029D0007047014601F00F00091100BF01EB8102B1
:1029E00051004218D0B2704730B501460A2491FB1D
:1029F000F4F4E2B20A2491FBF4F504FB1514E3B2FB
:102A000003EB0214E0B230BD70B505460C46FFF78B
:102A1000D2FE0520FFF7C2FFD020FFF7F7FEFFF739
:102A200040FF0520FFF7BAFF2846FFF7EFFEFFF74C
:102A300038FF0520FFF7B2FF2046FFF7E7FEFFF75C
:102A400030FF0520FFF7AAFFFFF7CFFE70BD70B57E
:102A500004460025FFF7AFFED020FFF7D7FEFFF7B3
:102A600020FF0520FFF79AFF2046FFF7CFFEFFF774
:102A700018FF0520FFF792FFFFF79DFED120FFF71B
:102A8000C5FEFFF70EFF0520FFF788FFFFF7E9FE01
:102A90000546FFF7AAFE284670BD10B5FFF74EFFAA
:102AA00000210E20FFF7B0FF0220FFF784FF002176
:102AB0000F20FFF7A9FF0220FFF77DFF10BD10B523
:102AC0000620FFF7C4FF514948600520FFF7BFFF0C
:102AD0004E4908720420FFF7BAFF4C4948720220A1
:102AE000FFF7B5FF494908700120FFF7B0FF4749DC
:102AF00048700020FFF7ABFF4449887010BD2DE9F6
:102B0000F04707460C4615461E46DDE908894FF09A
:102B1000000A3846FFF768FF00F0FF0A514606201A
:102B2000FFF772FF2046FFF75FFF00F0FF0A5146F4
:102B30000520FFF769FF2846FFF756FF00F0FF0A60
:102B400051460420FFF760FF3046FFF74DFF00F0CD
:102B5000FF0A51460220FFF757FF4046FFF744FFA8
:102B600000F0FF0A51460120FFF74EFF4846FFF7ED
:102B70003BFF00F0FF0A51460020FFF745FFBDE88C
:102B8000F08710B50620FFF762FF204948604968CA
:102B9000C8B2FFF71EFF1D4948600520FFF757FF29
:102BA0001A490872087AFFF714FF184908720420BE
:102BB000FFF74DFF15494872487AFFF70AFF13499E
:102BC00048720220FFF743FF10490870084600785A
:102BD00000F03F0008700878FFF7FBFE0B49087013
:102BE0000120FFF734FF094948704878FFF7F1FEEC
:102BF000064948700020FFF72AFF0449887088784A
:102C0000FFF7E7FE0149887010BD0000F0000020CA
:102C1000064C074D06E0E06840F0010394E8070029
:102C200098471034AC42F6D3FDF786FA542C0008CE
:102C3000742C000802E008C8121F08C1002AFAD14B
:102C400070477047002001E001C1121F002AFBD12C
:102C500070470000742C000800000020D80000001D
:102C6000342C00084C2D0008D80000202804000057
:102C7000442C000800A24A040000000000000000EC
:102C80000102030406070809000000000102030412
:102C90000102030406070809020406080A010203E8
:102CA000040506070809140B0C0D0E0F1011121362
:102CB0001E15161718191A1B1C1D2C232425262730
:102CC00028292A2B362D2E2F3031323334354037F8
:102CD00038393A3B3C3D3E3F0101020203040608FD
:102CE0000A0E1319212C3B506B8FBFFFFFBF8F6B58
:102CF000503B2C2119130E0A08060403020201019D
:102D000058290D005FDB0E00264B01002DFD02004F
:102D1000942803004FD60400568806005D3A080048
:102D20004AC5090051770B000000000000000000B8
:102D30000000000000000000000000000000000093
:0C2D400000000000000000000000000087
:0400000508000131BD
:00000001FF
